{
  "abi": [
    {
      "inputs": [
        {
          "internalType": "string",
          "name": "_greeting",
          "type": "string"
        }
      ],
      "stateMutability": "nonpayable",
      "type": "constructor"
    },
    {
      "inputs": [],
      "name": "GreeterError",
      "type": "error"
    },
    {
      "inputs": [],
      "name": "greet",
      "outputs": [
        {
          "internalType": "string",
          "name": "",
          "type": "string"
        }
      ],
      "stateMutability": "view",
      "type": "function"
    },
    {
      "inputs": [],
      "name": "greeting",
      "outputs": [
        {
          "internalType": "string",
          "name": "",
          "type": "string"
        }
      ],
      "stateMutability": "view",
      "type": "function"
    },
    {
      "inputs": [
        {
          "internalType": "string",
          "name": "_greeting",
          "type": "string"
        }
      ],
      "name": "setGreeting",
      "outputs": [],
      "stateMutability": "nonpayable",
      "type": "function"
    },
    {
      "inputs": [],
      "name": "throwError",
      "outputs": [],
      "stateMutability": "pure",
      "type": "function"
    }
  ],
  "bytecode": {
    "object": "0x60806040523480156200001157600080fd5b50604051620009c4380380620009c483398101604081905262000034916200011d565b62000059604051806060016040528060228152602001620009a260229139826200006f565b600062000067828262000264565b505062000390565b620000bc8282604051602401620000889291906200035e565b60408051601f198184030181529190526020810180516001600160e01b03908116634b5c427760e01b17909152620000c016565b5050565b60006a636f6e736f6c652e6c6f679050600080835160208501845afa505050565b634e487b7160e01b600052604160045260246000fd5b60005b8381101562000114578181015183820152602001620000fa565b50506000910152565b6000602082840312156200013057600080fd5b81516001600160401b03808211156200014857600080fd5b818401915084601f8301126200015d57600080fd5b815181811115620001725762000172620000e1565b604051601f8201601f19908116603f011681019083821181831017156200019d576200019d620000e1565b81604052828152876020848701011115620001b757600080fd5b620001ca836020830160208801620000f7565b979650505050505050565b600181811c90821680620001ea57607f821691505b6020821081036200020b57634e487b7160e01b600052602260045260246000fd5b50919050565b601f8211156200025f57600081815260208120601f850160051c810160208610156200023a5750805b601f850160051c820191505b818110156200025b5782815560010162000246565b5050505b505050565b81516001600160401b03811115620002805762000280620000e1565b6200029881620002918454620001d5565b8462000211565b602080601f831160018114620002d05760008415620002b75750858301515b600019600386901b1c1916600185901b1785556200025b565b600085815260208120601f198616915b828110156200030157888601518255948401946001909101908401620002e0565b5085821015620003205787850151600019600388901b60f8161c191681555b5050505050600190811b01905550565b600081518084526200034a816020860160208601620000f7565b601f01601f19169290920160200192915050565b60408152600062000373604083018562000330565b828103602084015262000387818562000330565b95945050505050565b61060280620003a06000396000f3fe608060405234801561001057600080fd5b506004361061004c5760003560e01c80632f7643a814610051578063a41368621461005b578063cfae32171461006e578063ef690cc01461008c575b600080fd5b610059610094565b005b61005961006936600461030d565b6100ad565b61007661016a565b6040516100839190610404565b60405180910390f35b6100766101fc565b60405163c8508fc360e01b815260040160405180910390fd5b61015a6040518060600160405280602381526020016105aa60239139600080546100d69061041e565b80601f01602080910402602001604051908101604052809291908181526020018280546101029061041e565b801561014f5780601f106101245761010080835404028352916020019161014f565b820191906000526020600020905b81548152906001019060200180831161013257829003601f168201915b50505050508361028a565b600061016682826104a6565b5050565b6060600080546101799061041e565b80601f01602080910402602001604051908101604052809291908181526020018280546101a59061041e565b80156101f25780601f106101c7576101008083540402835291602001916101f2565b820191906000526020600020905b8154815290600101906020018083116101d557829003601f168201915b5050505050905090565b600080546102099061041e565b80601f01602080910402602001604051908101604052809291908181526020018280546102359061041e565b80156102825780601f1061025757610100808354040283529160200191610282565b820191906000526020600020905b81548152906001019060200180831161026557829003601f168201915b505050505081565b6102d18383836040516024016102a293929190610566565b60408051601f198184030181529190526020810180516001600160e01b0316632ced7cef60e01b1790526102d6565b505050565b60006a636f6e736f6c652e6c6f679050600080835160208501845afa505050565b634e487b7160e01b600052604160045260246000fd5b60006020828403121561031f57600080fd5b813567ffffffffffffffff8082111561033757600080fd5b818401915084601f83011261034b57600080fd5b81358181111561035d5761035d6102f7565b604051601f8201601f19908116603f01168101908382118183101715610385576103856102f7565b8160405282815287602084870101111561039e57600080fd5b826020860160208301376000928101602001929092525095945050505050565b6000815180845260005b818110156103e4576020818501810151868301820152016103c8565b506000602082860101526020601f19601f83011685010191505092915050565b60208152600061041760208301846103be565b9392505050565b600181811c9082168061043257607f821691505b60208210810361045257634e487b7160e01b600052602260045260246000fd5b50919050565b601f8211156102d157600081815260208120601f850160051c8101602086101561047f5750805b601f850160051c820191505b8181101561049e5782815560010161048b565b505050505050565b815167ffffffffffffffff8111156104c0576104c06102f7565b6104d4816104ce845461041e565b84610458565b602080601f83116001811461050957600084156104f15750858301515b600019600386901b1c1916600185901b17855561049e565b600085815260208120601f198616915b8281101561053857888601518255948401946001909101908401610519565b50858210156105565787850151600019600388901b60f8161c191681555b5050505050600190811b01905550565b60608152600061057960608301866103be565b828103602084015261058b81866103be565b9050828103604084015261059f81856103be565b969550505050505056fe4368616e67696e67206772656574696e672066726f6d202725732720746f2027257327a26469706673582212209f2052cb82289ef46f9b86fab1f720e00ddfa85cd0a9a050657b662bb4e1bab664736f6c634300081300334465706c6f79696e67206120477265657465722077697468206772656574696e673a",
    "linkReferences": {}
  },
  "methodIdentifiers": {
    "greet()": "cfae3217",
    "greeting()": "ef690cc0",
    "setGreeting(string)": "a4136862",
    "throwError()": "2f7643a8"
  },
  "id": 0
}