{
  "abi": [
    {
      "inputs": [
        {
          "internalType": "string",
          "name": "_greeting",
          "type": "string"
        }
      ],
      "stateMutability": "nonpayable",
      "type": "constructor"
    },
    {
      "inputs": [],
      "name": "GreeterError",
      "type": "error"
    },
    {
      "inputs": [],
      "name": "greet",
      "outputs": [
        {
          "internalType": "string",
          "name": "",
          "type": "string"
        }
      ],
      "stateMutability": "view",
      "type": "function"
    },
    {
      "inputs": [],
      "name": "greeting",
      "outputs": [
        {
          "internalType": "string",
          "name": "",
          "type": "string"
        }
      ],
      "stateMutability": "view",
      "type": "function"
    },
    {
      "inputs": [
        {
          "internalType": "string",
          "name": "_greeting",
          "type": "string"
        }
      ],
      "name": "setGreeting",
      "outputs": [],
      "stateMutability": "nonpayable",
      "type": "function"
    },
    {
      "inputs": [],
      "name": "throwError",
      "outputs": [],
      "stateMutability": "pure",
      "type": "function"
    }
  ],
  "bytecode": {
    "object": "0x60806040523480156200001157600080fd5b5060405162000a0938038062000a09833981016040819052620000349162000136565b62000059604051806060016040528060228152602001620009e760229139826200006f565b60006200006782826200027d565b5050620003a9565b620000bc82826040516024016200008892919062000377565b60408051601f198184030181529190526020810180516001600160e01b03908116634b5c427760e01b17909152620000c016565b5050565b620000d681620000d960201b6200028a1760201c565b50565b60006a636f6e736f6c652e6c6f679050600080835160208501845afa505050565b634e487b7160e01b600052604160045260246000fd5b60005b838110156200012d57818101518382015260200162000113565b50506000910152565b6000602082840312156200014957600080fd5b81516001600160401b03808211156200016157600080fd5b818401915084601f8301126200017657600080fd5b8151818111156200018b576200018b620000fa565b604051601f8201601f19908116603f01168101908382118183101715620001b657620001b6620000fa565b81604052828152876020848701011115620001d057600080fd5b620001e383602083016020880162000110565b979650505050505050565b600181811c908216806200020357607f821691505b6020821081036200022457634e487b7160e01b600052602260045260246000fd5b50919050565b601f8211156200027857600081815260208120601f850160051c81016020861015620002535750805b601f850160051c820191505b8181101562000274578281556001016200025f565b5050505b505050565b81516001600160401b03811115620002995762000299620000fa565b620002b181620002aa8454620001ee565b846200022a565b602080601f831160018114620002e95760008415620002d05750858301515b600019600386901b1c1916600185901b17855562000274565b600085815260208120601f198616915b828110156200031a57888601518255948401946001909101908401620002f9565b5085821015620003395787850151600019600388901b60f8161c191681555b5050505050600190811b01905550565b600081518084526200036381602086016020860162000110565b601f01601f19169290920160200192915050565b6040815260006200038c604083018562000349565b8281036020840152620003a0818562000349565b95945050505050565b61062e80620003b96000396000f3fe608060405234801561001057600080fd5b506004361061004c5760003560e01c80632f7643a814610051578063a41368621461005b578063cfae32171461006e578063ef690cc01461008c575b600080fd5b610059610094565b005b610059610069366004610323565b6100ad565b61007661016a565b604051610083919061041a565b60405180910390f35b6100766101fc565b60405163c8508fc360e01b815260040160405180910390fd5b61015a6040518060600160405280602381526020016105d660239139600080546100d690610434565b80601f016020809104026020016040519081016040528092919081815260200182805461010290610434565b801561014f5780601f106101245761010080835404028352916020019161014f565b820191906000526020600020905b81548152906001019060200180831161013257829003601f168201915b5050505050836102ab565b600061016682826104bc565b5050565b60606000805461017990610434565b80601f01602080910402602001604051908101604052809291908181526020018280546101a590610434565b80156101f25780601f106101c7576101008083540402835291602001916101f2565b820191906000526020600020905b8154815290600101906020018083116101d557829003601f168201915b5050505050905090565b6000805461020990610434565b80601f016020809104026020016040519081016040528092919081815260200182805461023590610434565b80156102825780601f1061025757610100808354040283529160200191610282565b820191906000526020600020905b81548152906001019060200180831161026557829003601f168201915b505050505081565b60006a636f6e736f6c652e6c6f679050600080835160208501845afa505050565b6102f28383836040516024016102c39392919061057c565b60408051601f198184030181529190526020810180516001600160e01b0316632ced7cef60e01b1790526102f7565b505050565b6103008161028a565b50565b61030b6105bf565b565b634e487b7160e01b600052604160045260246000fd5b60006020828403121561033557600080fd5b813567ffffffffffffffff8082111561034d57600080fd5b818401915084601f83011261036157600080fd5b8135818111156103735761037361030d565b604051601f8201601f19908116603f0116810190838211818310171561039b5761039b61030d565b816040528281528760208487010111156103b457600080fd5b826020860160208301376000928101602001929092525095945050505050565b6000815180845260005b818110156103fa576020818501810151868301820152016103de565b506000602082860101526020601f19601f83011685010191505092915050565b60208152600061042d60208301846103d4565b9392505050565b600181811c9082168061044857607f821691505b60208210810361046857634e487b7160e01b600052602260045260246000fd5b50919050565b601f8211156102f257600081815260208120601f850160051c810160208610156104955750805b601f850160051c820191505b818110156104b4578281556001016104a1565b505050505050565b815167ffffffffffffffff8111156104d6576104d661030d565b6104ea816104e48454610434565b8461046e565b602080601f83116001811461051f57600084156105075750858301515b600019600386901b1c1916600185901b1785556104b4565b600085815260208120601f198616915b8281101561054e5788860151825594840194600190910190840161052f565b508582101561056c5787850151600019600388901b60f8161c191681555b5050505050600190811b01905550565b60608152600061058f60608301866103d4565b82810360208401526105a181866103d4565b905082810360408401526105b581856103d4565b9695505050505050565b634e487b7160e01b600052605160045260246000fdfe4368616e67696e67206772656574696e672066726f6d202725732720746f2027257327a26469706673582212204c5534756f23b9dbc48dce1200f98ee36892c25b3ad4da82e902f66f28088aeb64736f6c634300081300334465706c6f79696e67206120477265657465722077697468206772656574696e673a",
    "linkReferences": {}
  },
  "methodIdentifiers": {
    "greet()": "cfae3217",
    "greeting()": "ef690cc0",
    "setGreeting(string)": "a4136862",
    "throwError()": "2f7643a8"
  },
  "id": 0
}